{
  "_format": "hh-sol-artifact-1",
  "contractName": "Greeter",
  "sourceName": "contracts/Greeter.sol",
  "abi": [
    {
      "inputs": [
        {
          "internalType": "string",
          "name": "_greeting",
          "type": "string"
        }
      ],
      "stateMutability": "nonpayable",
      "type": "constructor"
    },
    {
      "inputs": [],
      "name": "deposit",
      "outputs": [],
      "stateMutability": "payable",
      "type": "function"
    },
    {
      "inputs": [],
      "name": "greet",
      "outputs": [
        {
          "internalType": "string",
          "name": "",
          "type": "string"
        }
      ],
      "stateMutability": "view",
      "type": "function"
    },
    {
      "inputs": [
        {
          "internalType": "string",
          "name": "_greeting",
          "type": "string"
        }
      ],
      "name": "setGreeting",
      "outputs": [],
      "stateMutability": "nonpayable",
      "type": "function"
    },
    {
      "inputs": [
        {
          "internalType": "address payable",
          "name": "_to",
          "type": "address"
        }
      ],
      "name": "settle",
      "outputs": [],
      "stateMutability": "payable",
      "type": "function"
    }
  ],
  "bytecode": "0x60806040523480156200001157600080fd5b5060405162000e2438038062000e24833981810160405281019062000037919062000278565b6200006760405180606001604052806022815260200162000e0260229139826200008760201b6200026c1760201c565b80600090805190602001906200007f92919062000156565b5050620004c5565b620001298282604051602401620000a0929190620002fe565b6040516020818303038152906040527f4b5c4277000000000000000000000000000000000000000000000000000000007bffffffffffffffffffffffffffffffffffffffffffffffffffffffff19166020820180517bffffffffffffffffffffffffffffffffffffffffffffffffffffffff83818316178352505050506200012d60201b60201c565b5050565b60008151905060006a636f6e736f6c652e6c6f679050602083016000808483855afa5050505050565b8280546200016490620003ea565b90600052602060002090601f016020900481019282620001885760008555620001d4565b82601f10620001a357805160ff1916838001178555620001d4565b82800160010185558215620001d4579182015b82811115620001d3578251825591602001919060010190620001b6565b5b509050620001e39190620001e7565b5090565b5b8082111562000202576000816000905550600101620001e8565b5090565b60006200021d620002178462000362565b62000339565b9050828152602081018484840111156200023657600080fd5b62000243848285620003b4565b509392505050565b600082601f8301126200025d57600080fd5b81516200026f84826020860162000206565b91505092915050565b6000602082840312156200028b57600080fd5b600082015167ffffffffffffffff811115620002a657600080fd5b620002b4848285016200024b565b91505092915050565b6000620002ca8262000398565b620002d68185620003a3565b9350620002e8818560208601620003b4565b620002f381620004b4565b840191505092915050565b600060408201905081810360008301526200031a8185620002bd565b90508181036020830152620003308184620002bd565b90509392505050565b60006200034562000358565b905062000353828262000420565b919050565b6000604051905090565b600067ffffffffffffffff82111562000380576200037f62000485565b5b6200038b82620004b4565b9050602081019050919050565b600081519050919050565b600082825260208201905092915050565b60005b83811015620003d4578082015181840152602081019050620003b7565b83811115620003e4576000848401525b50505050565b600060028204905060018216806200040357607f821691505b602082108114156200041a576200041962000456565b5b50919050565b6200042b82620004b4565b810181811067ffffffffffffffff821117156200044d576200044c62000485565b5b80604052505050565b7f4e487b7100000000000000000000000000000000000000000000000000000000600052602260045260246000fd5b7f4e487b7100000000000000000000000000000000000000000000000000000000600052604160045260246000fd5b6000601f19601f8301169050919050565b61092d80620004d56000396000f3fe60806040526004361061003f5760003560e01c80636a256b2914610044578063a413686214610060578063cfae321714610089578063d0e30db0146100b4575b600080fd5b61005e60048036038101906100599190610589565b6100be565b005b34801561006c57600080fd5b50610087600480360381019061008291906105b2565b610111565b005b34801561009557600080fd5b5061009e6101d8565b6040516100ab919061063b565b60405180910390f35b6100bc61026a565b005b6100c734610308565b8073ffffffffffffffffffffffffffffffffffffffff166108fc349081150290604051600060405180830381858888f1935050505015801561010d573d6000803e3d6000fd5b5050565b6101be6040518060600160405280602381526020016108d5602391396000805461013a906107eb565b80601f0160208091040260200160405190810160405280929190818152602001828054610166906107eb565b80156101b35780601f10610188576101008083540402835291602001916101b3565b820191906000526020600020905b81548152906001019060200180831161019657829003601f168201915b5050505050836103a1565b80600090805190602001906101d4929190610469565b5050565b6060600080546101e7906107eb565b80601f0160208091040260200160405190810160405280929190818152602001828054610213906107eb565b80156102605780601f1061023557610100808354040283529160200191610260565b820191906000526020600020905b81548152906001019060200180831161024357829003601f168201915b5050505050905090565b565b610304828260405160240161028292919061065d565b6040516020818303038152906040527f4b5c4277000000000000000000000000000000000000000000000000000000007bffffffffffffffffffffffffffffffffffffffffffffffffffffffff19166020820180517bffffffffffffffffffffffffffffffffffffffffffffffffffffffff8381831617835250505050610440565b5050565b61039e8160405160240161031c91906106e0565b6040516020818303038152906040527ff5b1bba9000000000000000000000000000000000000000000000000000000007bffffffffffffffffffffffffffffffffffffffffffffffffffffffff19166020820180517bffffffffffffffffffffffffffffffffffffffffffffffffffffffff8381831617835250505050610440565b50565b61043b8383836040516024016103b993929190610694565b6040516020818303038152906040527f2ced7cef000000000000000000000000000000000000000000000000000000007bffffffffffffffffffffffffffffffffffffffffffffffffffffffff19166020820180517bffffffffffffffffffffffffffffffffffffffffffffffffffffffff8381831617835250505050610440565b505050565b60008151905060006a636f6e736f6c652e6c6f679050602083016000808483855afa5050505050565b828054610475906107eb565b90600052602060002090601f01602090048101928261049757600085556104de565b82601f106104b057805160ff19168380011785556104de565b828001600101855582156104de579182015b828111156104dd5782518255916020019190600101906104c2565b5b5090506104eb91906104ef565b5090565b5b808211156105085760008160009055506001016104f0565b5090565b600061051f61051a84610720565b6106fb565b90508281526020810184848401111561053757600080fd5b6105428482856107a9565b509392505050565b600081359050610559816108bd565b92915050565b600082601f83011261057057600080fd5b813561058084826020860161050c565b91505092915050565b60006020828403121561059b57600080fd5b60006105a98482850161054a565b91505092915050565b6000602082840312156105c457600080fd5b600082013567ffffffffffffffff8111156105de57600080fd5b6105ea8482850161055f565b91505092915050565b60006105fe82610751565b610608818561075c565b93506106188185602086016107b8565b610621816108ac565b840191505092915050565b6106358161079f565b82525050565b6000602082019050818103600083015261065581846105f3565b905092915050565b6000604082019050818103600083015261067781856105f3565b9050818103602083015261068b81846105f3565b90509392505050565b600060608201905081810360008301526106ae81866105f3565b905081810360208301526106c281856105f3565b905081810360408301526106d681846105f3565b9050949350505050565b60006020820190506106f5600083018461062c565b92915050565b6000610705610716565b9050610711828261081d565b919050565b6000604051905090565b600067ffffffffffffffff82111561073b5761073a61087d565b5b610744826108ac565b9050602081019050919050565b600081519050919050565b600082825260208201905092915050565b60006107788261077f565b9050919050565b600073ffffffffffffffffffffffffffffffffffffffff82169050919050565b6000819050919050565b82818337600083830152505050565b60005b838110156107d65780820151818401526020810190506107bb565b838111156107e5576000848401525b50505050565b6000600282049050600182168061080357607f821691505b602082108114156108175761081661084e565b5b50919050565b610826826108ac565b810181811067ffffffffffffffff821117156108455761084461087d565b5b80604052505050565b7f4e487b7100000000000000000000000000000000000000000000000000000000600052602260045260246000fd5b7f4e487b7100000000000000000000000000000000000000000000000000000000600052604160045260246000fd5b6000601f19601f8301169050919050565b6108c68161076d565b81146108d157600080fd5b5056fe4368616e67696e67206772656574696e672066726f6d202725732720746f2027257327a2646970667358221220a21d459d883e5a864cf0fc3d913af823267c60313c86591a8901cbd7821cacbd64736f6c634300080400334465706c6f79696e67206120477265657465722077697468206772656574696e673a",
  "linkReferences": {},
  "deployedLinkReferences": {}
}