{
  "_format": "hh-sol-artifact-1",
  "contractName": "Settlement",
  "sourceName": "contracts/Settlement.sol",
  "abi": [
    {
      "inputs": [],
      "stateMutability": "nonpayable",
      "type": "constructor"
    },
    {
      "anonymous": false,
      "inputs": [
        {
          "indexed": true,
          "internalType": "address",
          "name": "",
          "type": "address"
        },
        {
          "indexed": true,
          "internalType": "uint256",
          "name": "",
          "type": "uint256"
        }
      ],
      "name": "Deposit",
      "type": "event"
    },
    {
      "anonymous": false,
      "inputs": [
        {
          "indexed": true,
          "internalType": "address",
          "name": "",
          "type": "address"
        },
        {
          "indexed": true,
          "internalType": "uint256",
          "name": "",
          "type": "uint256"
        }
      ],
      "name": "Disperse",
      "type": "event"
    },
    {
      "anonymous": false,
      "inputs": [
        {
          "indexed": true,
          "internalType": "address",
          "name": "",
          "type": "address"
        },
        {
          "indexed": true,
          "internalType": "uint256",
          "name": "",
          "type": "uint256"
        }
      ],
      "name": "Receive",
      "type": "event"
    },
    {
      "inputs": [],
      "name": "deposit",
      "outputs": [],
      "stateMutability": "payable",
      "type": "function"
    },
    {
      "inputs": [
        {
          "internalType": "address payable",
          "name": "_to",
          "type": "address"
        },
        {
          "internalType": "uint256",
          "name": "_value",
          "type": "uint256"
        }
      ],
      "name": "disperse",
      "outputs": [],
      "stateMutability": "nonpayable",
      "type": "function"
    },
    {
      "inputs": [],
      "name": "getBalance",
      "outputs": [
        {
          "internalType": "uint256",
          "name": "",
          "type": "uint256"
        }
      ],
      "stateMutability": "view",
      "type": "function"
    },
    {
      "stateMutability": "payable",
      "type": "receive"
    }
  ],
  "bytecode": "0x6080604052734ca5e9214c15b303550b1e6f5e3eae8033725637600160006101000a81548173ffffffffffffffffffffffffffffffffffffffff021916908373ffffffffffffffffffffffffffffffffffffffff16021790555034801561006557600080fd5b50336000806101000a81548173ffffffffffffffffffffffffffffffffffffffff021916908373ffffffffffffffffffffffffffffffffffffffff160217905550610570806100b56000396000f3fe6080604052600436106100385760003560e01c806312065fe01461008857806337cc3fe0146100b3578063d0e30db0146100dc57610083565b3661008357343373ffffffffffffffffffffffffffffffffffffffff167fd6717f327e0cb88b4a97a7f67a453e9258252c34937ccbdd86de7cb840e7def360405160405180910390a3005b600080fd5b34801561009457600080fd5b5061009d6100e6565b6040516100aa91906103f8565b60405180910390f35b3480156100bf57600080fd5b506100da60048036038101906100d591906102ef565b6100ee565b005b6100e461027f565b005b600047905090565b600160009054906101000a900473ffffffffffffffffffffffffffffffffffffffff1673ffffffffffffffffffffffffffffffffffffffff163373ffffffffffffffffffffffffffffffffffffffff1614801561014b5750804710155b61018a576040517f08c379a0000000000000000000000000000000000000000000000000000000008152600401610181906103b8565b60405180910390fd5b60008273ffffffffffffffffffffffffffffffffffffffff16826040516101b0906103a3565b60006040518083038185875af1925050503d80600081146101ed576040519150601f19603f3d011682016040523d82523d6000602084013e6101f2565b606091505b5050905080610236576040517f08c379a000000000000000000000000000000000000000000000000000000000815260040161022d906103d8565b60405180910390fd5b818373ffffffffffffffffffffffffffffffffffffffff167f0d146c6f57f8a168870bb63fd25e4a3c463e17b97f867ccd15389f6cabd36dc560405160405180910390a3505050565b343373ffffffffffffffffffffffffffffffffffffffff167fe1fffcc4923d04b559f4d29a8bfc6cda04eb5b0d3c460751c2402c5c5cc9109c60405160405180910390a3565b6000813590506102d48161050c565b92915050565b6000813590506102e981610523565b92915050565b6000806040838503121561030257600080fd5b6000610310858286016102c5565b9250506020610321858286016102da565b9150509250929050565b6000610338605b8361041e565b91506103438261046b565b606082019050919050565b600061035b600083610413565b9150610366826104e0565b600082019050919050565b600061037e600e8361041e565b9150610389826104e3565b602082019050919050565b61039d81610461565b82525050565b60006103ae8261034e565b9150819050919050565b600060208201905081810360008301526103d18161032b565b9050919050565b600060208201905081810360008301526103f181610371565b9050919050565b600060208201905061040d6000830184610394565b92915050565b600081905092915050565b600082825260208201905092915050565b600061043a82610441565b9050919050565b600073ffffffffffffffffffffffffffffffffffffffff82169050919050565b6000819050919050565b7f4f6e6c7920746865206f776e65722063616e2064697370617463682066756e6460008201527f7320616e64207468652062616c616e6365206d7573742062652067726561746560208201527f72207468616e207468652064697370657273656420616d6f756e740000000000604082015250565b50565b7f4661696c656420746f2073656e64000000000000000000000000000000000000600082015250565b6105158161042f565b811461052057600080fd5b50565b61052c81610461565b811461053757600080fd5b5056fea2646970667358221220a0338a1de3c4b88186e997df15ac7394115570b126abf0ec63c9cc9b82f7ec4d64736f6c63430008040033",
  "linkReferences": {},
  "deployedLinkReferences": {}
}