{
  "_format": "hh-sol-artifact-1",
  "contractName": "Settlement",
  "sourceName": "contracts/Settlement.sol",
  "abi": [
    {
      "inputs": [],
      "stateMutability": "nonpayable",
      "type": "constructor"
    },
    {
      "anonymous": false,
      "inputs": [
        {
          "indexed": true,
          "internalType": "address",
          "name": "",
          "type": "address"
        },
        {
          "indexed": true,
          "internalType": "uint256",
          "name": "",
          "type": "uint256"
        }
      ],
      "name": "Deposit",
      "type": "event"
    },
    {
      "anonymous": false,
      "inputs": [
        {
          "indexed": true,
          "internalType": "address",
          "name": "",
          "type": "address"
        },
        {
          "indexed": true,
          "internalType": "uint256",
          "name": "",
          "type": "uint256"
        }
      ],
      "name": "Disperse",
      "type": "event"
    },
    {
      "anonymous": false,
      "inputs": [
        {
          "indexed": true,
          "internalType": "address",
          "name": "",
          "type": "address"
        },
        {
          "indexed": true,
          "internalType": "uint256",
          "name": "",
          "type": "uint256"
        }
      ],
      "name": "Receive",
      "type": "event"
    },
    {
      "inputs": [],
      "name": "deposit",
      "outputs": [],
      "stateMutability": "payable",
      "type": "function"
    },
    {
      "inputs": [
        {
          "internalType": "address payable",
          "name": "_to",
          "type": "address"
        },
        {
          "internalType": "uint256",
          "name": "_value",
          "type": "uint256"
        }
      ],
      "name": "disperse",
      "outputs": [],
      "stateMutability": "nonpayable",
      "type": "function"
    },
    {
      "stateMutability": "payable",
      "type": "receive"
    }
  ],
  "bytecode": "0x608060405234801561001057600080fd5b50336000806101000a81548173ffffffffffffffffffffffffffffffffffffffff021916908373ffffffffffffffffffffffffffffffffffffffff160217905550610506806100606000396000f3fe60806040526004361061002d5760003560e01c806337cc3fe01461007d578063d0e30db0146100a657610078565b3661007857343373ffffffffffffffffffffffffffffffffffffffff167fd6717f327e0cb88b4a97a7f67a453e9258252c34937ccbdd86de7cb840e7def360405160405180910390a3005b600080fd5b34801561008957600080fd5b506100a4600480360381019061009f91906102af565b6100b0565b005b6100ae61023f565b005b60008054906101000a900473ffffffffffffffffffffffffffffffffffffffff1673ffffffffffffffffffffffffffffffffffffffff163373ffffffffffffffffffffffffffffffffffffffff1614801561010b5750804710155b61014a576040517f08c379a000000000000000000000000000000000000000000000000000000000815260040161014190610369565b60405180910390fd5b60008273ffffffffffffffffffffffffffffffffffffffff168260405161017090610354565b60006040518083038185875af1925050503d80600081146101ad576040519150601f19603f3d011682016040523d82523d6000602084013e6101b2565b606091505b50509050806101f6576040517f08c379a00000000000000000000000000000000000000000000000000000000081526004016101ed90610389565b60405180910390fd5b818373ffffffffffffffffffffffffffffffffffffffff167f0d146c6f57f8a168870bb63fd25e4a3c463e17b97f867ccd15389f6cabd36dc560405160405180910390a3505050565b343373ffffffffffffffffffffffffffffffffffffffff167fe1fffcc4923d04b559f4d29a8bfc6cda04eb5b0d3c460751c2402c5c5cc9109c60405160405180910390a3565b600081359050610294816104a2565b92915050565b6000813590506102a9816104b9565b92915050565b600080604083850312156102c257600080fd5b60006102d085828601610285565b92505060206102e18582860161029a565b9150509250929050565b60006102f8605b836103b4565b915061030382610401565b606082019050919050565b600061031b6000836103a9565b915061032682610476565b600082019050919050565b600061033e600e836103b4565b915061034982610479565b602082019050919050565b600061035f8261030e565b9150819050919050565b60006020820190508181036000830152610382816102eb565b9050919050565b600060208201905081810360008301526103a281610331565b9050919050565b600081905092915050565b600082825260208201905092915050565b60006103d0826103d7565b9050919050565b600073ffffffffffffffffffffffffffffffffffffffff82169050919050565b6000819050919050565b7f4f6e6c7920746865206f776e65722063616e2064697370617463682066756e6460008201527f7320616e64207468652062616c616e6365206d7573742062652067726561746560208201527f72207468616e207468652064697370657273656420616d6f756e740000000000604082015250565b50565b7f4661696c656420746f2073656e64000000000000000000000000000000000000600082015250565b6104ab816103c5565b81146104b657600080fd5b50565b6104c2816103f7565b81146104cd57600080fd5b5056fea2646970667358221220fd9cec231cf344abce9d282f630b2c5823a0626a57bf88dc2a042020f528a27c64736f6c63430008040033",
  "linkReferences": {},
  "deployedLinkReferences": {}
}