{
  "_format": "hh-sol-artifact-1",
  "contractName": "Task",
  "sourceName": "contracts/Task.sol",
  "abi": [
    {
      "inputs": [
        {
          "internalType": "address",
          "name": "_sister",
          "type": "address"
        }
      ],
      "stateMutability": "nonpayable",
      "type": "constructor"
    },
    {
      "anonymous": false,
      "inputs": [
        {
          "indexed": true,
          "internalType": "address",
          "name": "",
          "type": "address"
        },
        {
          "indexed": true,
          "internalType": "uint256",
          "name": "",
          "type": "uint256"
        }
      ],
      "name": "Deposit",
      "type": "event"
    },
    {
      "anonymous": false,
      "inputs": [
        {
          "indexed": true,
          "internalType": "address",
          "name": "",
          "type": "address"
        },
        {
          "indexed": true,
          "internalType": "uint256",
          "name": "",
          "type": "uint256"
        }
      ],
      "name": "Receive",
      "type": "event"
    },
    {
      "anonymous": false,
      "inputs": [
        {
          "indexed": false,
          "internalType": "uint256",
          "name": "",
          "type": "uint256"
        }
      ],
      "name": "Settle",
      "type": "event"
    },
    {
      "inputs": [],
      "name": "deposit",
      "outputs": [],
      "stateMutability": "payable",
      "type": "function"
    },
    {
      "inputs": [],
      "name": "settle",
      "outputs": [],
      "stateMutability": "nonpayable",
      "type": "function"
    },
    {
      "stateMutability": "payable",
      "type": "receive"
    }
  ],
  "bytecode": "0x608060405234801561001057600080fd5b50604051610563380380610563833981810160405281019061003291906100ce565b33600160006101000a81548173ffffffffffffffffffffffffffffffffffffffff021916908373ffffffffffffffffffffffffffffffffffffffff160217905550806000806101000a81548173ffffffffffffffffffffffffffffffffffffffff021916908373ffffffffffffffffffffffffffffffffffffffff16021790555050610140565b6000815190506100c881610129565b92915050565b6000602082840312156100e057600080fd5b60006100ee848285016100b9565b91505092915050565b600061010282610109565b9050919050565b600073ffffffffffffffffffffffffffffffffffffffff82169050919050565b610132816100f7565b811461013d57600080fd5b50565b6104148061014f6000396000f3fe60806040526004361061002d5760003560e01c806311da60b41461007d578063d0e30db01461009457610078565b3661007857343373ffffffffffffffffffffffffffffffffffffffff167fd6717f327e0cb88b4a97a7f67a453e9258252c34937ccbdd86de7cb840e7def360405160405180910390a3005b600080fd5b34801561008957600080fd5b5061009261009e565b005b61009c610235565b005b600160009054906101000a900473ffffffffffffffffffffffffffffffffffffffff1673ffffffffffffffffffffffffffffffffffffffff163373ffffffffffffffffffffffffffffffffffffffff161461012e576040517f08c379a000000000000000000000000000000000000000000000000000000000815260040161012590610308565b60405180910390fd5b60008060009054906101000a900473ffffffffffffffffffffffffffffffffffffffff1673ffffffffffffffffffffffffffffffffffffffff1647604051610175906102f3565b60006040518083038185875af1925050503d80600081146101b2576040519150601f19603f3d011682016040523d82523d6000602084013e6101b7565b606091505b50509050806101fb576040517f08c379a00000000000000000000000000000000000000000000000000000000081526004016101f290610328565b60405180910390fd5b7f2a45eee61b61ef4932e2d79b32be61a1a538cbe00381faffb4d1cf3b1268c46b4760405161022a9190610348565b60405180910390a150565b343373ffffffffffffffffffffffffffffffffffffffff167fe1fffcc4923d04b559f4d29a8bfc6cda04eb5b0d3c460751c2402c5c5cc9109c60405160405180910390a3565b6000610288601f8361036e565b915061029382610389565b602082019050919050565b60006102ab60168361036e565b91506102b6826103b2565b602082019050919050565b60006102ce600083610363565b91506102d9826103db565b600082019050919050565b6102ed8161037f565b82525050565b60006102fe826102c1565b9150819050919050565b600060208201905081810360008301526103218161027b565b9050919050565b600060208201905081810360008301526103418161029e565b9050919050565b600060208201905061035d60008301846102e4565b92915050565b600081905092915050565b600082825260208201905092915050565b6000819050919050565b7f4f6e6c7920746865206f776e65722063616e20736574746c65207461736b7300600082015250565b7f4661696c656420746f20736574746c652066756e647300000000000000000000600082015250565b5056fea264697066735822122073253442df6bcb7bf35cf7c1bc39b4b321ab0895d7930d465e3eaf1ad114540d64736f6c63430008040033",
  "linkReferences": {},
  "deployedLinkReferences": {}
}