{
  "_format": "hh-sol-artifact-1",
  "contractName": "Task",
  "sourceName": "contracts/Task.sol",
  "abi": [
    {
      "inputs": [
        {
          "internalType": "address",
          "name": "_settlement",
          "type": "address"
        }
      ],
      "stateMutability": "nonpayable",
      "type": "constructor"
    },
    {
      "anonymous": false,
      "inputs": [
        {
          "indexed": true,
          "internalType": "address",
          "name": "",
          "type": "address"
        },
        {
          "indexed": true,
          "internalType": "uint256",
          "name": "",
          "type": "uint256"
        }
      ],
      "name": "Deposit",
      "type": "event"
    },
    {
      "anonymous": false,
      "inputs": [
        {
          "indexed": true,
          "internalType": "address",
          "name": "",
          "type": "address"
        },
        {
          "indexed": true,
          "internalType": "uint256",
          "name": "",
          "type": "uint256"
        }
      ],
      "name": "Receive",
      "type": "event"
    },
    {
      "anonymous": false,
      "inputs": [
        {
          "indexed": false,
          "internalType": "uint256",
          "name": "",
          "type": "uint256"
        }
      ],
      "name": "Settle",
      "type": "event"
    },
    {
      "inputs": [],
      "name": "deposit",
      "outputs": [],
      "stateMutability": "payable",
      "type": "function"
    },
    {
      "inputs": [],
      "name": "getSettlementAddress",
      "outputs": [
        {
          "internalType": "address",
          "name": "",
          "type": "address"
        }
      ],
      "stateMutability": "view",
      "type": "function"
    },
    {
      "inputs": [],
      "name": "settle",
      "outputs": [],
      "stateMutability": "nonpayable",
      "type": "function"
    },
    {
      "inputs": [],
      "name": "settlement",
      "outputs": [
        {
          "internalType": "address",
          "name": "",
          "type": "address"
        }
      ],
      "stateMutability": "view",
      "type": "function"
    },
    {
      "stateMutability": "payable",
      "type": "receive"
    }
  ],
  "bytecode": "0x6080604052734ca5e9214c15b303550b1e6f5e3eae8033725637600260006101000a81548173ffffffffffffffffffffffffffffffffffffffff021916908373ffffffffffffffffffffffffffffffffffffffff16021790555034801561006557600080fd5b506040516106f93803806106f983398181016040528101906100879190610123565b33600160006101000a81548173ffffffffffffffffffffffffffffffffffffffff021916908373ffffffffffffffffffffffffffffffffffffffff160217905550806000806101000a81548173ffffffffffffffffffffffffffffffffffffffff021916908373ffffffffffffffffffffffffffffffffffffffff16021790555050610195565b60008151905061011d8161017e565b92915050565b60006020828403121561013557600080fd5b60006101438482850161010e565b91505092915050565b60006101578261015e565b9050919050565b600073ffffffffffffffffffffffffffffffffffffffff82169050919050565b6101878161014c565b811461019257600080fd5b50565b610555806101a46000396000f3fe6080604052600436106100435760003560e01c806311da60b41461009357806351160630146100aa57806371b41eed146100d5578063d0e30db0146101005761008e565b3661008e57343373ffffffffffffffffffffffffffffffffffffffff167fd6717f327e0cb88b4a97a7f67a453e9258252c34937ccbdd86de7cb840e7def360405160405180910390a3005b600080fd5b34801561009f57600080fd5b506100a861010a565b005b3480156100b657600080fd5b506100bf6102a7565b6040516100cc91906103d6565b60405180910390f35b3480156100e157600080fd5b506100ea6102cb565b6040516100f791906103d6565b60405180910390f35b6101086102f4565b005b6000479050600260009054906101000a900473ffffffffffffffffffffffffffffffffffffffff1673ffffffffffffffffffffffffffffffffffffffff163373ffffffffffffffffffffffffffffffffffffffff161461019f576040517f08c379a0000000000000000000000000000000000000000000000000000000008152600401610196906103f1565b60405180910390fd5b60008060009054906101000a900473ffffffffffffffffffffffffffffffffffffffff1673ffffffffffffffffffffffffffffffffffffffff16476040516101e6906103c1565b60006040518083038185875af1925050503d8060008114610223576040519150601f19603f3d011682016040523d82523d6000602084013e610228565b606091505b505090508061026c576040517f08c379a000000000000000000000000000000000000000000000000000000000815260040161026390610411565b60405180910390fd5b7f2a45eee61b61ef4932e2d79b32be61a1a538cbe00381faffb4d1cf3b1268c46b8260405161029b9190610431565b60405180910390a15050565b60008054906101000a900473ffffffffffffffffffffffffffffffffffffffff1681565b60008060009054906101000a900473ffffffffffffffffffffffffffffffffffffffff16905090565b343373ffffffffffffffffffffffffffffffffffffffff167fe1fffcc4923d04b559f4d29a8bfc6cda04eb5b0d3c460751c2402c5c5cc9109c60405160405180910390a3565b61034381610468565b82525050565b6000610356602183610457565b9150610361826104a4565b604082019050919050565b6000610379601683610457565b9150610384826104f3565b602082019050919050565b600061039c60008361044c565b91506103a78261051c565b600082019050919050565b6103bb8161049a565b82525050565b60006103cc8261038f565b9150819050919050565b60006020820190506103eb600083018461033a565b92915050565b6000602082019050818103600083015261040a81610349565b9050919050565b6000602082019050818103600083015261042a8161036c565b9050919050565b600060208201905061044660008301846103b2565b92915050565b600081905092915050565b600082825260208201905092915050565b60006104738261047a565b9050919050565b600073ffffffffffffffffffffffffffffffffffffffff82169050919050565b6000819050919050565b7f4f6e6c792074686520736574746c65722063616e20736574746c65207461736b60008201527f7300000000000000000000000000000000000000000000000000000000000000602082015250565b7f4661696c656420746f20736574746c652066756e647300000000000000000000600082015250565b5056fea2646970667358221220dada12f877408128c146e0cf01b9f2d2051d776b3367149bdb9bfd88145228f764736f6c63430008040033",
  "linkReferences": {},
  "deployedLinkReferences": {}
}